:020000040800F2
:10000000A83B002001010008AD3A0008AD2C000813
:10001000753A0008D10600083156000800000000BB
:10002000000000000000000000000000AD3F0008DC
:100030004707000800000000313E0008AF3F0008FD
:100040001B0100081B0100081B010008B13E00084D
:100050001B0100081B0100081B0100081B01000810
:100060001B0100081B0100081B0100081B01000800
:10007000D5060008E1060008ED060008F9060008AC
:1000800005070008110700081B0100081B010008F4
:10009000C95500081B0100081B010008490700089A
:1000A0001B0100087D4000081B0100081B0100081F
:1000B0001B0100081B01000889400008BD2C000836
:1000C000B12C00081B0100081B010008913F00082B
:1000D0001B010008094500081545000821450008D6
:1000E0001B0100081B0100081B010008DFF80CD0F1
:1000F00000F05EFA00480047A9610008A83B002014
:100100000648804706480047FEE7FEE7FEE7FEE7B1
:10011000FEE7FEE7FEE7FEE7FEE7FEE73540000804
:10012000ED000008202A04DB203A21FA02F0002129
:10013000704721FA02F3D040C2F1200291400843F7
:100140001946704740EA01039B0703D009E008C93C
:10015000121F08C0042AFAD203E011F8013B00F88C
:10016000013B521EF9D27047D2B201E000F8012BD8
:10017000491EFBD270470022F6E710B513460A4627
:1001800004461946FFF7F0FF204610BD30B505467E
:100190002A460B4612F8010B13F8014B08B1A04296
:1001A000F8D01CB1002802D06D1CF1E7284630BD04
:1001B00030B50B46014600202022012409E021FA37
:1001C00002F59D4205D303FA02F5491B04FA02F534
:1001D0002844151EA2F10102F1DC30BD2DE9F05FCB
:1001E0000546002092469B468846064681464024A6
:1001F0001BE02846414647462246FFF793FF5346F9
:100200005A46C01A914110D311461846224600F0B2
:10021000E1F92D1A67EB01084F4622460120002123
:1002200000F0D8F917EB00094E41201EA4F101049B
:10023000DFDC484631462A464346BDE8F09F2DE9BB
:10024000FE4F804681EA0300C00F0C46009021F06B
:10025000004123F00045B8EB0200A94105D2404619
:10026000214690461C460B46024623F000401043B0
:1002700047D0270DC7F30A00C3F30A510290401A72
:10028000019040286BDAC3F3130040F4801B009800
:10029000924620B10023D2EB030A63EB0B0B0198CB
:1002A0005946C0F14002504600F094F906460D460A
:1002B00050465946019A00F09CF910EB0800614144
:1002C000002487EA115284EAE7731A4340D0009A67
:1002D00062B3019A012A4FEA075215DC001B61EB59
:1002E00002014FF0004202EA0752CDE90042001C31
:1002F00041F5801132462B4600F09CF903B0BDE871
:10030000F08F40462146F9E7001B61EB0201001C1B
:1003100041F5801300185B412018A2F5001747EB48
:10032000030140EAD570B6196D4111E06D084FEA3E
:10033000360645EAC0754FEA0752001B61EB020121
:10034000001C41F5801149084FEA30000019514165
:1003500032462B4603B0BDE8F04F00F05CB9009880
:10036000012240000023D0EB020263EBE07300980F
:1003700021464FEAE074B8EB000061EB0401E9E7C5
:1003800083F000435BE781F0004158E72DE9FE4F21
:1003900081EA030404F0004421F0004100944FF08E
:1003A000000B23F0004350EA01045ED052EA03043C
:1003B0005BD0C3F30A54C1F30A552C44A4F2F334BE
:1003C0000194A0FB0254C1F3130141F48011C3F363
:1003D000130343F4801301FB024400FB034E840A21
:1003E000970A44EA815447EA8357A4FB07680295B9
:1003F0008D0A05FB07854FEA932C04FB0C54270557
:10040000029D4FEA065847EA1637B5EB08056EEB32
:10041000070C870E920E47EA811742EA8312A7FB68
:100420000201B6EB0B0164EB00042B0D43EA0C3325
:100430005E1844EB1C50DA465146E7FB0201C5F357
:1004400013044FEA0B3343EA14534FEA0432019C7E
:1004500043EA0603A4F10C040294009CCDE900B425
:1004600000F0E8F803B0BDE8F08F00200146F9E79E
:100470002DE9F04D81EA030404F0004B21F0004522
:1004800014464FF0000A23F0004150EA050220D044
:1004900054EA01021DD0C5F30A570246C5F31303FF
:1004A000C1F31300C1F30A5640F4801543F48013DE
:1004B000A7EB0608101BD64608F2FD3873EB0500C3
:1004C00002D308F1010801E092185B41B8F1000F76
:1004D00003DA00200146BDE8F08D00204FF48011C2
:1004E000064684460EE0171B73EB050705D3121B67
:1004F00063EB050306434CEA010C49084FEA300060
:1005000092185B4150EA0107EDD152EA030012D084
:1005100082EA040083EA0501084305D0101BAB41C1
:1005200006D20122002306E000224FF0004302E041
:100530006FF0010253101AEB06004CEB085110EB60
:100540000A0041EB0B01BDE8F04D00F064B8C1F3C7
:100550000A52C1F3130140F2FF3341F480119A4271
:1005600002DA00200146704740F233439A42A2F279
:10057000334202DC5242FFF7D5BD00F02BB8000039
:1005800030B5041E71F1000404DB4FF0004440421A
:1005900064EB0101141E73F1000405DB1C464FF0EF
:1005A0000043524263EB0403994208BF904230BDBE
:1005B000064C074D06E0E06840F0010394E80700B0
:1005C00098471034AC42F6D3FFF794FD8C620008D4
:1005D000AC620008202A04DB203A00FA02F1002075
:1005E00070479140C2F1200320FA03F31943904071
:1005F0007047202A06DBCB17203A41FA02F043EA83
:10060000E07306E041FA02F3D040C2F120029140CB
:1006100008431946704710B5141E73F1000408DA38
:10062000401C41F1000192185B411A4301D120F0B6
:10063000010010BD2DE9F04D92469B4611B1B1FA73
:1006400081F202E0B0FA80F220329046FFF7C2FF5A
:1006500004460F4640EA0A0041EA0B0153465A4657
:10066000084313D0114653EA010019D0C8F14002E3
:100670005046FFF757FD05460E465046594642463E
:10068000FFF7A8FF084305D0012004E020463946C3
:10069000BDE8F08D0020054346EAE0762C43374361
:1006A0000A986305E40AA0EB08000022FD0A44EA68
:1006B00047540A3002D500200146E9E70105101928
:1006C0006941DDE9084500196941BDE8F04DA2E73F
:1006D000FEE70000014800F0BBB80000C80400209D
:1006E000014800F0B5B800000C050020014800F0FA
:1006F000AFB80000B8030020014800F0A9B800001E
:10070000FC030020014800F0A3B80000840400208E
:10071000014800F09DB800004004002030B590F87A
:1007200040500124AC40C56B6C6004686360436852
:10073000102B036803D099600068C26030BD9A60D6
:100740000068C16030BD70474FF4807000F0A8B9F8
:100750000C4930B5401A42F2E052904211D242099F
:10076000881800F5005090F8E0350020044606E0B7
:1007700085180D4405F50055401C85F8E045984264
:10078000F6D330BD9010002001680A6822F00E02F6
:100790000A6001680A6822F001020A6090F84020AD
:1007A000C36B012101FA02F25A6080F82110002186
:1007B00080F820100846704710B590F821100024EA
:1007C000022903D00421816301243DE001680A6805
:1007D00022F00E020A6001680A6822F001020A6033
:1007E0001A4A0168914201D1012121E0174A1432CD
:1007F000914201D110211BE0144A2832914201D1CB
:10080000891515E0114A3C32914201D189140FE05B
:100810000E4A5032914202D14FF4803108E00B4A27
:100820006432914202D14FF4801101E04FF08071A7
:10083000064A083A5160012180F82110002180F811
:100840002010416B01B18847204610BD08000240CE
:100850002DE9F05FC16B0C6801680B68D0F840C0EF
:10086000042202FA0CF2494DDFF824A1494E4A4F06
:10087000DFF828B1DFF828E122422CD05A072AD528
:100880000A68920603D40A6822F004020A6001682A
:10089000A94201D1042219E0514501D1402215E0BD
:1008A000B14202D14FF4806210E0B94202D14FF45C
:1008B00080420BE0594502D14FF4802206E0714599
:1008C00002D14FF4800201E04FF080622F490839D5
:1008D0004A60C16A3BE04FF0020808FA0CF818EAD7
:1008E000040F4FF000094FF0010235D05FEA837822
:1008F00032D50B689B0605D40B6823F00A030B6006
:1009000080F821200168A94201D1022219E0514555
:1009100001D1202215E0B14202D14FF4007210E063
:10092000B94202D14FF400520BE0594502D14FF4C5
:10093000003206E0714502D14FF4001201E04FF0A1
:100940000072124908394A6080F82090816A0029B3
:100950001AD0BDE8F05F0847082505FA0CF52542D6
:1009600012D01B0710D50B6823F00E030B6090F814
:100970004010C36B02FA01F15960826380F82120B4
:1009800080F82090016BE2E7BDE8F09F080002408C
:100990001C00024030000240440002405800024067
:1009A0006C00024030B548B308C8154914221944F8
:1009B000B1FBF2F18900C1631249816302214177E1
:1009C0001A6843F6F0718A43D0E900142143D0E954
:1009D00002452C432143046921434469214384692E
:1009E000214311431960002141628162C1620163A8
:1009F0004163012242770177084630BD012030BDB6
:100A0000F8FFFDBF0000024070B5044690F82000DA
:100A1000002501280CD0012084F8200094F82160E2
:100A20000020012E06D084F820000225284670BD43
:100A3000022070BD022684F82160A0632068066849
:100A400026F0010606602046FFF768FEE06A0028EF
:100A50002068016802D041F00E0106E021F0040197
:100A600001602068016841F00A01016020680168A6
:100A700041F001010160D9E770B5044600F004F9C6
:100A80000546601C02D004480078044400F0FCF8DD
:100A9000401BA042FAD370BD340000207047000014
:100AA000044910B50A68024202D00860FFF7F6FF59
:100AB00010BD0000140401402DE9F84FDFF890A1AB
:100AC00000220AF1040B144601274FF00F090BF125
:100AD000040E00BF0B6807FA04F52B40AB4274D13B
:100AE000DFF870C14E68A6EB0C0866452BD00DDC14
:100AF000032E34D005DC36B3012E19D0022E2FD1AF
:100B00001BE0112E16D0122E2AD119E0B8F5881F3D
:100B100019D006DCB8F5803F15D0B8F5801F1FD17D
:100B200011E0B8F5001F0ED0B8F5041F18D10AE087
:100B3000CA6815E0CA68121D12E0CA6808320FE0E0
:100B4000CA680C320CE08A682AB1012A4FF0080208
:100B500003D0456104E0042202E0056100E00022C8
:100B6000FF2B01D8064601E000F104064FEA840598
:100B700001D9A5F12005D6F800C009FA05F82CEA3C
:100B8000080C02FA05F54CEA050CC6F800C04D68E1
:100B9000ED0057D5304DAE6946F00106AE61AD6946
:100BA00024F0030605F0010500952C4D06EB050C1D
:100BB000DCF80850A6074FEA167809FA08F6B5439C
:100BC000274EB04202D1002610E03BE0254EB04255
:100BD00001D101260AE0244EB04201D1022605E0EF
:100BE000224EB04201D1032600E0042606FA08F6A0
:100BF0002E43CCF808604D68DAF80060ED035546E6
:100C000001D51E4300E09E432E604D68DBF8006076
:100C1000AD035D4601D51E4300E09E432E604D6846
:100C2000DEF80060ED02754601D51E4300E09E43EC
:100C30002E604D68AD020E4D2E6801D51E4300E0BA
:100C40009E432E60641C102CFFF444AFBDE8F88F67
:100C5000000401400000111000100240000001409B
:100C600000080140000C0140001001400014014048
:100C70000C040140C2684A40C26070470AB1016179
:100C800070470904FBE700000148806870470000D6
:100C9000340000207047704770B50446006845690D
:100CA000466830490D420DD0F1050BD5216C41F05D
:100CB000010121646FF4807141612068016841F491
:100CC0000041016015F4813F09D0F00507D5206C83
:100CD00040F00200206421686FF40070486115F450
:100CE000823F28D0F00526D594F83E30628D94F8E6
:100CF0003D00216B202B08D13AB921280ED029289C
:100D00000CD0282801D1212908D0206C40F0040003
:100D1000206494F83E00102804D008E0204602F039
:100D2000C7FA08E02068016841F400710160216899
:100D30006FF48060486115F4843F09D0F00507D551
:100D4000206C40F00800206421686FF40060486166
:100D5000206C002804D02046BDE8704001F0DCBFC4
:100D600070BD0000000101002DE9F05F026804463B
:100D7000D2F818805569566890F83E007449DFF83B
:100D8000D0A1DFF8CCB1DFF8CC918F1C0AF17E0A3C
:100D90000BF13E0B102812D0402810D00D425BD032
:100DA000B00559D5936920460021DB435B0700D588
:100DB00001219269D243120648D5828947E015F095
:100DC000011F05D0B00503D5204602F044FA10E01B
:100DD0005F48801D054205D0B00503D5606CC0B2E8
:100DE000106106E00D4204D0B00502D5204602F0A5
:100DF000A5F918EA090F14D015EA0A0F08D07005F2
:100E000006D53D4206D12046BDE8F05F02F012B99A
:100E10003D421FD0B0051DD52046BDE8F05F02F071
:100E2000C8B815EA0B0F08D0700506D53D4206D1AB
:100E30002046BDE8F05F02F065B83D420AD0B0053B
:100E400008D52046BDE8F05F01F0F8BF028B92B2F2
:100E5000FFF721FFBDE8F09F3D480E30054206D068
:100E6000B00504D52046BDE8F05F02F063BA18EA89
:100E7000090F4FF0280134D015EA0A0F23D070056E
:100E800021D53D4221D194F83D302046628D002A83
:100E9000E0D0426A541C4462046812782261428D98
:100EA000521E4285428D002AD4D1292BD2D102680C
:100EB000536823F4806353602122026380F83D105D
:100EC00000F015F9C6E73D42C4D0B005C2D5608D2B
:100ED0000028BFD0606A411C616221680078086107
:100EE00031E015EA0B0F22D0700520D53D4220D10C
:100EF00094F83D302046648D002CABD01469426AD2
:100F0000551C45621470428D521E4285428D002A46
:100F1000A0D12A2B9ED10268536823F480635360CA
:100F20002222026380F83D1000F0E0F892E73D4293
:100F300090D0B0058ED5608D00288BD01169606A85
:100F4000421C62620170608D401E608582E7000075
:100F500002000100040010007047000070B504009A
:100F60001BD094F83D00002520B984F83C50204661
:100F700000F09AF8242084F83D002068016821F0F0
:100F80000101016000F0B6FD404A6168914201D85C
:100F90003F4900E03F49884201D2012070BD3E49EF
:100FA0002368B0FBF1F159606368934206D94FF4AE
:100FB000967359434FF47A73B1FBF3F12368491CDC
:100FC00019626168914210D84900401EB0FBF1F2ED
:100FD000521CC2F30B02042A01D2042022E0B0FB0F
:100FE000F1F0401CC0F30B001CE0A368CBB301EB95
:100FF000C10202EB0116421EB2FBF6F2521C42F491
:101000008042120536D06BB301EBC10202EB011135
:10101000401EB0FBF1F0401CC0F30B0040F48040D8
:1010200040F400402168C861D4E907010843216801
:101030000860D4E90310084321688860D4E90501F9
:1010400008432168C8602068016841F0010101601F
:101050002564202084F83D00256384F83E5000205C
:1010600070BD00E008E001EB4106421EB2FBF6F263
:10107000521CC6E70120D5E701EB4101401EB0FB41
:10108000F1F0401CC0F30B00CAE70000A08601008D
:1010900080841E0000093D0040420F0070477047E9
:1010A000704770477047000000B500680C4985B074
:1010B000884212D1C020009012200190032003909A
:1010C00069460848FFF7F8FC0748C16941F4001178
:1010D000C161C06900F40010049005B000BD0000BB
:1010E00000540040000C014000100240704770475F
:1010F00070B5040011D021684CF6CC40086021681E
:1011000045F255500860D4E9000141602168A068AB
:101110008860FFF7B9FD054609E0012070BD00BFFA
:10112000FFF7B2FD401B302801D9032070BD2068B5
:10113000C0680028F4D121684AF6AA20086000207F
:1011400070BD00684AF6AA210160002070470000C7
:1011500002488168027811448160704734000020A1
:10116000074810B5016841F010010160032000F04C
:10117000B7F8002000F006F800F03EF8002010BD9F
:101180000020024000B5014687B00022192000F07F
:1011900087F8192000F078F81348816941F400615C
:1011A0008161806905A900F400600690684600F03E
:1011B0007BFC00F0AFFC0D490D4AB0FBF1F10D488E
:1011C000491E0260416040F2E7320021C0E903217C
:1011D000816001F006F910B1012007B000BD05489B
:1011E00001F046F9F9E700000010024040420F000C
:1011F000002C0140E80D0020214808B5816941F02C
:1012000001018161816901F001010091C16941F031
:101210008051C161C06900F080500090032000F04F
:101220005FF8002211466FF00B0000F039F8002241
:1012300011466FF00A0000F033F8002211466FF0FB
:10124000090000F02DF800221146501F00F028F888
:1012500000221146101F00F023F800221146901EB4
:1012600000F01EF800221146501E00F019F8054843
:10127000416821F0E06141F08061416008BD0000FB
:10128000001002400000014000F01F0201219140C7
:101290004009800000F1E020C0F800117047000014
:1012A000F0B40E4B1B680C46C3F30223C3F10705D1
:1012B000042D00D90425191D072901D2002300E0BF
:1012C000DB1E012606FA05F1491E214099409E4089
:1012D000761E16403143F0BC02F0E9BB0CED00E095
:1012E000064900F0070208684FF6FF03184040EA7D
:1012F0000220034A10430860704700000CED00E034
:101300000000FA0510B50C0605D501F07F0100EBD1
:101310004110283003E000EB411000F50A7099B24B
:1013200032B101228272C180190C0181002010BDEE
:10133000002282728180F9E7704700EB4112D0F8F9
:101340005C04D26B03F017BB00EB4112D0F85C04D5
:10135000D2F83C2203F064BB10B504460A460B06E3
:1013600001F07F0004EB401101D5283101E001F5C7
:101370000A710870D009487094F82804012809D02F
:10138000012084F82804206803F03AFF002084F844
:10139000280410BD022010BD70B50A460446090697
:1013A00002F07F0003D504EB4011283103E004EB89
:1013B000421101F50A7100258D700870D00948703E
:1013C00094F82804012809D0012084F82804206812
:1013D00003F0C4FF84F82854002070BD022070BDC3
:1013E00070B504460D460E0601F07F0004EB401177
:1013F00001D5283101E001F50A710870E80948704B
:101400000A61CB7094F82804012809D0012084F8DF
:101410002804206803F0C4FD002084F8280470BD6F
:10142000022070BD70B50C4601F07F0500EB451140
:10143000C1E98F230022C1F8442281F8292281F8D2
:10144000285201F50A716206006803F0E1FF0020EE
:1014500070BD70B50D460446090605F07F0003D542
:1014600004EB4011283103E004EB451101F50A714A
:1014700001228A700870E809487094F8280401284D
:1014800007D084F82824206803F09DFF680602D066
:1014900006E0022070BD04F22C41206803F05CFFDE
:1014A000002084F8280470BD70B50C4601F07F055B
:1014B00000EB4511C1E90F2300224A64012281F8A3
:1014C000292001F8285F6206006803F0A1FF0020D0
:1014D00070BD10B50446006804F07CF8000402D525
:1014E000204602F0F4FA206804F074F840050CD5A8
:1014F000206830F8441F21F480610180204600F00C
:10150000EDF80021204600F0FEF8206804F062F8B3
:10151000400405D5206830F8441F21F48041018043
:10152000206804F057F8800405D5206830F8441F7F
:1015300021F400510180206804F04CF8C00414D557
:10154000206830F8401F21F004010180206830F845
:10155000401F21F008010180204600F0CCF82068EF
:1015600030F8441F21F480510180206804F032F8E3
:1015700000051AD5206830F8401F41F008010180AD
:10158000206830F8441F21F400610180206830F8A1
:10159000401F41F004010180206804F01BF8C043A3
:1015A000C00402D5204600F0E3F8206804F012F8E9
:1015B000800508D5206830F8441F21F400710180AF
:1015C000204600F09CF8206804F004F8C00505D51A
:1015D000206830F8441F21F48071018010BD0000A4
:1015E0002DE9F04186B004004FF0000504D094F8D6
:1015F0002904002620B108E0012006B0BDE8F081F2
:1016000084F82864204600F04BF8032084F829046D
:10161000206803F09AFE04F11001142288466846FF
:10162000FEF790FD94E80F0003F0E8FD002120682C
:1016300003F0E3FF5FF0010704EB451080F8297029
:1016400000F8285F8581C670066146616D1C866161
:101650000F2DF1D35FF0000004EB401181F82962F7
:1016600081F82802888681F82B62C1F83862C1F8B7
:101670003C62401CC1F840620F28EDD31422414661
:101680006846FEF75FFD94E80F0003F04FFE84F814
:10169000246084F82974206803F046FE0020ACE73B
:1016A00008B500680B49884212D10B48C16941F462
:1016B0000001C161C069002200F4000000901146E1
:1016C0001420FFF7EDFDBDE808401420FFF7DCBD56
:1016D00008BD0000005C00400010024010B5044648
:1016E0000121D0F85C0403F075FAD4F85C04BDE87D
:1016F000104003F03EBAD0F85C0403F059BAD0F8B9
:101700005C0403F05BBA10B5044690F82804012885
:101710000BD0012084F8280484F82410206803F0FA
:101720006EFF002084F8280410BD022010BDD0F800
:101730005C2400F22C41104603F05FBA10B5044659
:1017400090F82804012810D0012084F828040146CC
:101750002046FFF7F1FD206803F0E4FD206803F068
:101760002CFF002084F8280410BD022010BD0000CA
:1017700010B50446D0F85C0403F08CFAA069002888
:1017800004D00348016841F00601016010BD00006B
:1017900010ED00E0014901200862704700000E4290
:1017A00010B528A401461DCC86B08DE81D0029A0E7
:1017B000294C006804900020012923D0022939D047
:1017C00010291DD161682268D20119D5C1F3834265
:1017D000C9031DF8020009D5616804AAC1F340419C
:1017E000515C1E4AB2FBF1F1484301E01C494843F9
:1017F0006168490204D440005FF00301B0FBF1F0DE
:1018000006B010BD226AC2F30121012903D192075B
:1018100001D5C803F4E7022905D1626A920702D50F
:1018200049F64040ECE70329EAD121688903E7D56E
:101830000C48E5E700F06EF96168C1F38131491C9D
:101840004900DBE702030405060708090A0B0C0D33
:101850000E0F10100102000000100240001BB70024
:1018600000093D00366E01002DE9F8430546007879
:10187000354CC00754D0E0690026C00008D4E069A8
:1018800040F08050E061E069012600F08050009057
:101890002E480168C90512D40168804641F4807160
:1018A0000160FFF7F1F9074605E000BFFFF7ECF92B
:1018B000C01B642823D8D8F80000C005F6D5206ADC
:1018C00010F4407021D0A98801F4407181421CD0ED
:1018D000206A1F49012220F440700A6000220A6039
:1018E0002062C00711D0FFF7CFF9074641F28838D0
:1018F00008E000BFFFF7C8F9C11B414502D903202A
:10190000BDE8F883206A8007F4D5206A696820F46E
:101910004070084320621EB1E06920F08050E06111
:101920002878800705D56068A96820F440400843FE
:1019300060602878C00605D56068E96820F48000FA
:10194000084360600020DBE70010024000700040A8
:10195000400442422DE9F047DFF83C8105460E463F
:10196000D8F8000000F00700B0420CD2D8F8001000
:1019700021F007013143C8F80010D8F8000000F04A
:101980000700B04263D12878444C800705D56068D1
:10199000A96820F0F000084360602878C00745D0AF
:1019A0006868012816D02168022816D08907002906
:1019B0004DDA616821F0030101436160FFF764F9CA
:1019C0006968074641F2883001290FD00229814613
:1019D00019D027E021688903E9E78901E7E700BF1B
:1019E000FFF752F9C11B494501D918E081466068EB
:1019F000C0F381000128F3D118E000BFFFF744F9DC
:101A0000C11B49450BD86068C0F381000228F5D19D
:101A10000CE000BFFFF738F9C11B494502D903208C
:101A2000BDE8F087606810F00C0FF3D1D8F8001013
:101A3000404601F00701B1420BD9016821F00701CE
:101A400031430160006800F00700B04201D001207E
:101A5000E6E72878400705D56068E96820F4E0608B
:101A6000084360602878000706D56068296920F47B
:101A7000605040EAC100606000F05CF86168084AAC
:101A8000C1F30311515CC840064908600020FFF70C
:101A900079FB0020C4E70000002002400010024053
:101AA00074620008400000200F2202600C4A536854
:101AB00003F003034360536803F0F003836053684B
:101AC00003F4E063C36052684FF4E06303EAD202B8
:101AD00002610448006800F00700086070470000D9
:101AE00000100240002002400148006870470000DA
:101AF000400000200448054900684968044AC1F3D1
:101B00000221515CC8407047400000200010024094
:101B1000846200080448054900684968044AC1F322
:101B2000C221515CC84070474000002000100240B4
:101B30008462000813A185B00FC98DE80F0015A0BD
:101B4000154A00680490516801F00C00042804D084
:101B5000082804D0114805B070471148FBE7C1F3CD
:101B60008343C9031DF8030009D5516804AAC1F3D2
:101B70004041515C0A4A5043B0FBF1F0EBE70949A0
:101B80004843E8E702030405060708090A0B0C0DA1
:101B90000E0F1010010200000010024000127A0027
:101BA000001BB70000093D002DE9F84F04460078FE
:101BB000B94DC00748D06868C0F38100012807D03C
:101BC0006868C0F38100022809D16868C00306D59F
:101BD0002868800338D5606800286FD034E06068DA
:101BE000B0F5803F0BD010B1B0F5A02F11D0286810
:101BF00020F480302860286820F4802002E02868E3
:101C000040F480302860606888B1FFF73DF80646F0
:101C100009E0286840F480202860F0E7FFF734F8F6
:101C2000801B642875D828688003F7D50CE0FFF77F
:101C30002BF8064605E000BFFFF726F8801B642856
:101C4000F0D828688003F7D42078944E80074FF0AE
:101C500001094FF000083BD5686810F00C0F07D061
:101C60006868C0F38100022809D16868C00306D4FF
:101C70002868800714D5206901281FD110E0206949
:101C8000B0B1C6F80090FEF7FFFF074605E000BFC1
:101C9000FEF7FAFFC01B0228C4D828688007F7D5D2
:101CA0002868616920F0F80040EAC10028600FE070
:101CB000C6F80080FEF7E8FF074606E0E9E000BF4F
:101CC000FEF7E2FFC01B022823D828688007F7D45C
:101CD000207800072CD57248A169D9B1C0F80090CE
:101CE000FEF7D2FF074604E0FEF7CEFFC01B022836
:101CF0000FD8686A8007F7D56A484FF4FA51006830
:101D0000B0FBF1F0009000BF0098411E0091FAD2A4
:101D10000EE080E0C0F80080FEF7B6FF074604E062
:101D2000FEF7B2FFC01B022875D8686A8007F7D497
:101D30002078400760D5E8690027C00008D4E8692A
:101D400040F08050E861E869012700F08050009081
:101D500055480168C90513D40168834641F4807170
:101D60000160FEF791FF824606E000BFFEF78CFFA0
:101D7000A0EB0A0064284ED8DBF80000C005F5D5BA
:101D8000E06801280AD008B1052813D0286A20F09D
:101D900001002862286A20F0040002E0286A40F06E
:101DA00001002862E06841F2883B98B1FEF76CFFC1
:101DB00082460BE0286A40F004002862EEE700BF8C
:101DC000FEF762FFA0EB0A0159455AD8286A80073E
:101DD000F6D50CE0FEF758FF824605E0FEF754FF0B
:101DE000A0EB0A0159454CD8286A8007F6D41FB1E8
:101DF000E86920F08050E861E06988B36968C1F360
:101E00008101022945D00228C6F8608004D0FEF77F
:101E10003BFF044638E034E0FEF736FF074604E0B7
:101E2000FEF732FFC01B02282BD828688001F7D4A8
:101E3000206AB0F5803F05D16868A16820F40030C1
:101E400008436860D4E908010843696821F4741103
:101E500008436860C6F86090FEF716FF044606E087
:101E600015E000BFFEF710FF001B022809D8286804
:101E70008001F7D50BE000BFFEF706FF001B02282C
:101E800002D90320BDE8F88F28688001F4D400202F
:101E9000F8E70120F6E7000000100240000042428F
:101EA00080044242400000200070004070477047AC
:101EB00010B5044600680168C90716D04168C90713
:101EC00013D040684007204607D5FFF7F0FF216890
:101ED0006FF004004860042002E0FFF7E7FF0120F4
:101EE000607421686FF00100486010BD70B5040097
:101EF00003D0607C002610B105E0012070BD26747F
:101F0000204600F043F802206074204600F010F9EB
:101F1000042578BB204601F095FF58BB2068416836
:101F200021F007014160A06820B11748016821F045
:101F3000010101601448001F0168A26821F460716A
:101F4000114301606068411C04D10120FFF728FCA7
:101F500080B1401E21688A6822F00F0242EA1042D6
:101F60008A602168CA6860F30F02CA60204601F0E7
:101F700083FF08B16574C0E7E67301206073A07346
:101F80006074002070BD0000306C004008B500682F
:101F9000084988420DD1FFF7FDFB0748C16941F0B0
:101FA0000061C161C069054900F000600090012036
:101FB000086008BD00280040001002403C04424276
:101FC0002DE9F0410D4604003BD0C5B3207C01282B
:101FD0003AD04FF0010884F8108002206074E8784D
:101FE00072B301F026FFE073687801F022FF60739E
:101FF000A87801F01EFFA073C2B2617BE07B01F004
:1020000074FF20732870204601F05FFF4FF4616178
:10201000B0FBF1F1002518292DD91822B1FBF2F1FE
:10202000A1EB011101EB4101C1EB011100EBC11664
:102030003146204601F098FF0427C8B90BE000E0C4
:1020400004E00120BDE8F0810220FBE7E07368783E
:102050006073A878CFE7204601F030FF411C0AD01A
:10206000B04208D206490144204601F069FF10B190
:1020700067742574E5E784F8118025740020E1E792
:10208000805101002DE9F0410D46040024D01DB31C
:10209000207C012823D04FF0010884F81080022012
:1020A00060742878EAB101F0C4FE4FF4616100FB6E
:1020B00001F6687801F0BDFEC0EB001006EB80066B
:1020C000A87801F0B6FE35182946204601F04CFFED
:1020D0000026042710BB0FE00120BDE8F08102209C
:1020E000FBE74FF4616148436978C1EB011100EBF4
:1020F0008100A9784518E7E72068416821F00501CB
:102100004160204601F0DAFE411C0AD0A84208D204
:1021100006490144204601F013FF10B1677426748C
:10212000DAE784F8118026740020D6E78051010098
:1021300070B504000AD02068416821F008014160B0
:10214000FEF7A2FD05464FF47A7608E0012070BD47
:10215000FEF79AFD401BB04201D9032070BD2068F4
:1021600040680007F4D5002070BD704738B50446BC
:102170000068426881684B0605D4CB0703D053063C
:1021800001D5216C04E08B0707D5130605D5616CDA
:1021900001B02046BDE83040084711F0600F3FD045
:1021A00093063DD54B060AD594F85130032B34D015
:1021B000636D43F004036365C36883680093890615
:1021C00009D5616D41F00101616581680091016887
:1021D00021F040010160606D002821D02068416835
:1021E00021F0E0014160012084F85100900718D0EF
:1021F0002068416821F0030141600C4DE06C18B18A
:102200004563E06CFEF7D8FAA06C002808D045635F
:10221000A06CBDE83840FEF7CFBAC1688068009076
:1022200038BD2046FFF7A1FF38BD00009D3F0008E4
:1022300070B5040005D00025A56294F8510010B1D6
:1022400004E0012070BD204600F034F8022084F83C
:1022500051002068016821F040010160D4E90101CA
:102260000843D4E903121143084361690843218BF1
:1022700001F400710843E1690843216A0843A16A37
:10228000084321680860A069042101EA1040616ADE
:102290000843216848602168E06A08612068C169D4
:1022A00021F40061C1616565012084F851000020BE
:1022B00070BD000030B51E4D036800241D4802218A
:1022C000032285B0AB4212D1836943F4805383610A
:1022D0008069194D00F480500490B020CDE90001D0
:1022E000039269462846FEF7E7FB402016E0134DAF
:1022F000AB421AD1C36943F48043C361C069104D36
:1023000000F4804004904FF42040CDE90001039296
:1023100069462846FEF7D0FB4FF48040CDE9000423
:10232000694628460294FEF7C7FB05B030BD0000A1
:102330000030014000100240000801400038004019
:10234000000C01404FF0E0210428086903D020F080
:1023500004000861704740F00400FAE7704710B5C8
:10236000401EB0F1807F01D3012010BD4FF0E0246A
:1023700060610F21601701F09AFB0020A061072027
:102380002061002010BD10B5FFF7E8FF10BD7047B9
:10239000704730B590F83C20012A20D0012280F807
:1023A0003C20022380F83D3003685C6824F0700410
:1023B0005C6003685C680D682C435C6003689C6823
:1023C00024F080049C6003689C6849680C439C600E
:1023D00080F83D20002180F83C10084630BD0220E6
:1023E00030BD10B5040003D094F83D0010B107E0F3
:1023F000012010BD002084F83C00204600F00CF8BD
:10240000022084F83D00211D206801F043FE0120D8
:1024100084F83D00002010BD08B501681148B1F1F5
:10242000804F0BD0104A914210D1C16941F0020196
:10243000C161C06900F00200009008BDC16941F0AF
:102440000101C161C06900F00100F5E7074A91424E
:10245000F3D1C16941F00401C161C06900F0040019
:10246000EAE70000001002400004004000080040BD
:102470000168CA6842F00102CA600068016841F060
:10248000010101600020704770B5044690F83C00DF
:10249000012817D0012584F83C50022084F83D0023
:1024A0002068826822F0770222F47F428260086806
:1024B000502837D00DDC202859D005DC88B31028EF
:1024C00041D151E0022070BD302853D040283AD18C
:1024D0003FE060282ED070280BD0B0F5805F03D08D
:1024E000B0F5005F2FD110E02068816821F007016E
:1024F00015E0CB68D1E90121206801F001FE2168D7
:10250000886840F0770088601DE0CB68D1E9012140
:10251000206801F0F5FD2068816841F48041816008
:1025200011E01EE0CA684968206801F0FBFD5021F7
:10253000206806E0CA684968206801F004FE60214E
:10254000206801F0E7FD84F83D50002084F83C004D
:1025500070BDCA684968206801F0E4FD4021206828
:10256000EFE700212068ECE710212068E9E720214F
:102570002068E6E730212068E3E7704770B504463D
:10258000006801694FF00005C943890715D4C16887
:10259000C943890711D4E91E016101202077206811
:1025A00080698007204602D0FFF7E7FF04E000F0D3
:1025B00098F8204600F096F8257720680169C9430D
:1025C000490717D4C168C943490713D46FF0040100
:1025D0000161022020772068806910F4407F204646
:1025E00002D0FFF7CAFF04E000F07BF8204600F0BD
:1025F00079F8257720680169C943090716D4C168AD
:10260000C943090712D46FF0080101610420207743
:102610002068C0698007204602D0FFF7AEFF04E0C3
:1026200000F05FF8204600F05DF82577206801692A
:10263000C943C90617D4C168C943C90613D46FF08A
:1026400010010161082020772068C06910F4407FE4
:10265000204602D0FFF791FF04E000F042F8204648
:1026600000F040F8257720680169C943C90708D1FF
:10267000C168C943C90704D1891E0161204600F021
:1026800033F820680169C943090609D4C168C94300
:10269000090605D46FF0800101612046FFF777FE3F
:1026A00020680169C943490609D4C168C94349067C
:1026B00005D46FF040010161204600F045F8206824
:1026C0000169C94389060BD4C168C943890607D487
:1026D0006FF0200101612046BDE87040FFF758BE51
:1026E00070BD70477047000010B5044600680D4982
:1026F000884201D1FEF72CFD0B492068884206D1A3
:1027000003F01AFC03F0CCFC08A002F093FF0C4984
:102710002068884205D1BDE8104020210948FEF715
:10272000A9BA10BD002C01400004004054494D33AB
:1027300020495420776F726B65642E0D0A000000EB
:1027400000080040000C0140704710B504460068C6
:10275000416994F83920C1F3C011212A0BD151B13C
:10276000416921F080014161206B08B1FEF70CF84E
:10277000204601F058FD2068416994F83A20C1F3E1
:102780008011222A0BD151B1416921F040014161F0
:10279000606B08B1FDF7F8FF204601F036FD002020
:1027A00010BD704770B5026804461068D16853695F
:1027B00010F00F0F50D003F0010501F4907635436F
:1027C0005DD0C20705D0CA0503D5E26B42F0010215
:1027D000E263420705D5DA0703D0E26B42F002025A
:1027E000E263820705D5DA0703D0E26B42F0040208
:1027F000E263020705D5DA0703D0E26B42F0080274
:10280000E263E26B002A33D0800604D5880602D545
:10281000204601F011FD20684069E16BC0F3801093
:10282000090700D428B3204601F0EFFC2068416975
:1028300049061AD5416921F040014161606BA0B1A0
:102840001B494163606BFDF7B7FF002810D0606B38
:10285000416BBDE870400847830610D58B060ED546
:102860002046BDE8704001F0E7BC2046FFF799FF25
:1028700070BD2046FFF795FF0020E06370BD0306A2
:1028800006D50B0604D52046BDE8704001F0D8BD42
:102890004006F3D54806F1D5D168204621F0400125
:1028A000D160202184F8391000F0FFF970BD0000DC
:1028B0006B41000870B5040004D094F8390000257D
:1028C00010B106E0012070BD84F83850204600F0B9
:1028D00023F8242084F839002068C16821F40051CD
:1028E000C160204601F0F4FC2068016921F49041A8
:1028F00001612068416921F02A0141612068C168B5
:1029000041F40051C160E563202084F8390084F867
:102910003A00002070BD00002DE9F0470446DFF8C2
:102920000082D0F800C07F48022103227E4B0025A0
:102930008027202686B04FF4806A4FF01009C445E6
:102940004AD1D0F818C04CF4804CC0F818C0806947
:10295000039200F4804004900802CDE9000169462A
:1029600098461846FEF7A8F8CDE900A56946404606
:102970000295FEF7A1F8DFF8B8816C494046C0E93E
:102980000019C0E90257C8F81050C8E90556B94601
:10299000C8F81C50FEF706F818B1A62165A002F091
:1029A00048FE634F6148C4F8308044371430C8F89B
:1029B0002440C7E90005C7E902593D61C7E905564A
:1029C0003846FD61FDF7EEFF08B1B621A4E067636C
:1029D0007C6206B0BDE8F087DFF86881C4454ED15F
:1029E000D0F81CC04CF4003CC0F81CC0C069039275
:1029F00000F4003004900420CDE9000169469846B7
:102A00001846FEF759F80820CDE90005694640460A
:102A10000295FEF751F8DFF81881444908F188085B
:102A200040463C31C0E90257C8F81050C0E90019CF
:102A3000C8E90556B146C8F81C50FDF7B3FF18B1F8
:102A4000E1213CA002F0F5FD394E3848C4F8308051
:102A5000CC362830C8F82440C6E90005C6E902573C
:102A60003561C6E905593046F561FDF79BFF18B1A0
:102A7000F12130A002F0DDFD66637462A9E7324BFC
:102A80009C45A6D1C36943F48023C361C069CDE9E5
:102A900000A100F48020CDE90320DFF8B080694672
:102AA0004046FEF709F84FF40060CDE9000569469D
:102AB00040460295FEF700F8DFF894A01B49504607
:102AC0002839C0E90257CAF81050C0E90019CAE90C
:102AD0000556B846CAF81C50FDF764FF20B14FF404
:102AE0008E7114A002F0A5FD194F1048C4F830A053
:102AF00044371438CAF82440C7E90005C7E902582A
:102B00003D61C7E905563846FD61FDF74BFF0028DA
:102B10003FF45DAF4FF4967106A002F08AFD56E7D0
:102B2000003801400010024000080140440002400B
:102B3000B80300202E2E2F5372632F7573617274A9
:102B40002E6300000044004000480040000C01409B
:102B5000C8040020F8B5044690F83A0020283CD17B
:102B6000C1B3BAB394F83800012836D0012084F8F4
:102B70003800A162A2850025E563222084F83A008E
:102B8000636B17489862636B1648D862636B16488C
:102B90001863606B134645630846666B21680246FE
:102BA0003046091DFDF730FF20680168416800913B
:102BB00084F83850C16841F48071C160206841696F
:102BC00041F0010141612068416941F040014161EA
:102BD0000020F8BDFFE70120FBE70220F9E7000035
:102BE000C5410008014200087B410008704770475A
:102BF0002DE9F843044690F839001F4616460D4665
:102C0000202850D1A5B19EB194F8380001284AD0AF
:102C1000012084F838004FF00008C4F83C802120DF
:102C200084F83900FEF730F8A6848146E68426E071
:102C30000120BDE8F883E08C401EE084A0684B468C
:102C4000B0F5805F4FF000024FF080012046009702
:102C500003D001F026FCE8B90DE001F022FCC8B970
:102C600028882168C0F308004860206908B16D1CFD
:102C700005E0AD1C03E0216815F8010B4860E08C0D
:102C80000028D8D14B46002240212046009701F071
:102C900008FC08B10320CCE7202084F8390084F830
:102CA00038800020C5E70220C3E77047FEE7000038
:102CB0000148FDF7F1BF0000140100200148FEF7B4
:102CC00053B800001401002010B5406A01680A687A
:102CD00022F480620A6000214185426B5163826B5D
:102CE000516390F83D302022602B80F83D2080F821
:102CF0003E1007D001680A6822F001020A60FEF760
:102D00002BF910BD016401680A6822F001020A6013
:102D1000FDF7C0FF10BD000070B590F83D100446EF
:102D200000252026006829292DD02A292BD094F8A7
:102D30003D10602904D04168090501D484F83D6044
:102D4000256384F83E50016821F400610160206829
:102D50004168090537D5416821F400614160606B25
:102D6000344990F82120012A12D04163606BFDF7AD
:102D700023FD38B32068016821F00101016084F867
:102D80003D60606B1CE02563282184F83D10DAE784
:102D9000A06B4163A06BFDF70FFD98B120684169FE
:102DA000C943490604D40169606A421C6262017029
:102DB0002068016821F00101016084F83D60A06B8A
:102DC000416B88470FE094F83D1060291DD04169A0
:102DD000C943490604D40169606A421C62620170F9
:102DE0002046FEF7B9F894F83D0028280CD1206C55
:102DF000400709D51048E062256384F83D6084F8F7
:102E00003E502046FEF74AF970BD84F83D602564C7
:102E10004169C943490604D40169606A421C62627F
:102E200001702068016821F0010101602046FDF772
:102E300031FFD8E7C92C00080000FFFF10B5C26AB7
:102E4000448D2F4B0168032C03D0448D022C15D0E8
:102E50000AE0042A03D0082A01D09A4203D10A6862
:102E600022F480620A6001680A69416A4B1C43626D
:102E70000A70418D491E4185002010BD042A12D0E0
:102E8000082A10D09A420ED0022A0A6802D022F4F0
:102E9000806201E042F480620A6001684A6822F4BC
:102EA00040724A6008E04A6822F440724A60016851
:102EB0000A6842F400720A6001680A69416A4B1CA0
:102EC00043620A70418D491E418501680A69416A61
:102ED0004B1C43620A70418D491E4185202180F8B8
:102EE0003D100021016390F83E2080F83E10402AFA
:102EF00002D0FEF7D4F8BFE7FEF7D3F8BCE7000036
:102F00000000FFFF10B590F83D1022294CD1418DF3
:102F1000032909D901680A69416A4B1C43620A7096
:102F2000418D491E41853FE0022909D0032907D080
:102F3000C16A022901680A6818D022F4806217E089
:102F4000C16A022901680A6807D022F480620A6017
:102F500001680A6842F4006201E042F480620A609B
:102F60000068416821F4806141601DE042F48062A4
:102F70000A6001684A6822F4E0624A6001680A69EE
:102F8000416A4B1C43620A70418D491E41852021D4
:102F900080F83D100021016390F83E2080F83E103B
:102FA000402A03D0FEF77BF8002010BDFEF779F829
:102FB000FAE710B5C26A90F83D10212921D1418D60
:102FC00049B1416A4A1C4262026809781161418D27
:102FD000491E418515E020230021042A13D0082A28
:102FE00011D012F5803F0ED00268546824F4E064DA
:102FF00054601122026380F83E1080F83D30FEF7E5
:103000004FF8002010BD0268546824F4E064546056
:103010000268146844F400741460016380F83D3061
:1030200090F83E2080F83E10402AE8D1FEF73AF8AA
:10303000E7E7000010B590F83D1090F83E30C26A06
:10304000048D24B1212934D0402B30D074E02129C3
:10305000FAD120230021042A13D0082A11D012F516
:10306000803F0ED00268546824F4E064546011225A
:10307000026380F83E1080F83D3000BFFEF710F884
:103080005AE00268546824F4E064546002681468EA
:1030900044F400741460016380F83D3090F83E20E1
:1030A00080F83E10402AE9D1FDF7FCFF44E02229D8
:1030B00042D1418D21B190F83E10402906D032E036
:1030C0000068416821F48061416035E0016D31B1F3
:1030D000016D012911D0016D022915D02CE0C16CC0
:1030E0000129816C02D0C1F3072108E00268C9B24E
:1030F0001161016D891C01651EE0816CC9B2026815
:103100001161016D491CF6E790F83D10222904D0A9
:1031100090F83D10212906D00EE00068016841F4C6
:103120008071016008E0416A4A1C426202680978C5
:103130001161418D491E4185002010BD78B590F880
:103140003E50C26A046B90F83D6000230168222E55
:1031500006D1066D0EB9402D02D0056D25B107E0F0
:103160004869886900901CE00569B5F5404F1AD0A0
:10317000458D85B3458D012D20D0428D022A4AD040
:103180000A6842F480620A6001684A68120503D541
:103190004A6842F480524A6001684A69896900912C
:1031A0000365002078BD4A698A6900920A6842F482
:1031B00080720A60016D491C0165F2E712F5803FDB
:1031C0000AD0042A21D0082A1FD0122C1DD0C26A8E
:1031D000022A09D114E00BE00A6822F480620A6036
:1031E00001684A68120503D50A6822F480620AE081
:1031F0004A698A6900920A6842F400720A60CFE75D
:103200000A6842F480620A60C6E70A6822F48062B3
:103210000A600168ECE7C26A022A0A680BD042F42D
:1032200000620A6001684A698A6900920A6822F4A9
:1032300080620A6006E042F480620A6001684A69BE
:103240008969009101684A681205A9D54A6842F463
:1032500080524A60A4E790F83E10402909D00169E5
:10326000B1F5804F10D0016D99B1016D012915D0D4
:103270001CE0016D19B9416C01F0FE0114E0416CD4
:10328000C9B241F001010FE090F83D102129F6D1BB
:10329000F1E7416CF02201F4407103E0416CF1224E
:1032A00001F4407142EAD1110068016100207047C9
:1032B0002DE9F04190F83D40C26A00231C4F2026C2
:1032C00001686FF48065042A01D0082A01D1282CF6
:1032D00005D0212C17D04D610020BDE8F081C762D8
:1032E0004A6822F4E0624A6001684D6101680A6838
:1032F00022F480620A60036380F83D6080F83E300B
:10330000FDF7CCFEE8E7C7622122026380F83D604A
:1033100080F83E304A6822F4E0624A6001684D61FC
:1033200001680A6822F480620A60FDF7E0FED3E7D4
:103330000000FFFF38B590F83D2001684B6823F48A
:10334000E0634B60036800215C6900941C6844F0F2
:1033500001041C6003681C6824F480641C6003681A
:103360005C6824050BD590F83D40222C2BD090F8BA
:103370003D402A2C27D0446B246864684485448DE2
:10338000E4B15C69E443640707D41C69436A5D1CCB
:1033900045621C70438D5B1E438503685C69E44392
:1033A000640607D41C69436A5D1C45621C70438D2A
:1033B0005B1E4385036C43F004030364036C23B179
:1033C000FFF7AAFC1FE0846BD6E72023282A09D048
:1033D0002A2A07D0292A05D0046B222C0CD0222AB5
:1033E0000AD010E0094AC262016380F83D3080F8DB
:1033F0003E10FDF753FE06E0016380F83D3080F893
:103400003E10FDF773FE002038BD00000000FFFFF6
:10341000054808B5416941F001014161406900F08A
:103420000100009008BD0000001002402DE9F041AD
:10343000224886B0816941F020018161816901F0F3
:1034400020010491816941F004018161816901F0E9
:1034500004010491816941F0080181618069184F7C
:1034600000F008000490002202213846FDF706FC17
:10347000DFF85080002227214046FDF7FFFB0224A1
:10348000012500268DE87000694638460394FDF753
:1034900013FB272003948DE8610069464046FDF741
:1034A0000BFBE00100900848CDE901056946404664
:1034B000FDF702FB06B0BDE8F081000000100240FD
:1034C00000080140000C0140000021100E4810B51A
:1034D0000C4901600D49416000214FF48042816038
:1034E000C0E9031241618161C1610162FDF736FDEE
:1034F000002805D0BDE810404C2105A002F099B885
:1035000010BD00000054004014010020A0860100FE
:103510002E2E2F5372632F6932632E63000000003A
:103520000A4810B5084901600421416040F6FF7166
:103530008160FDF7DDFD002805D0BDE81040442185
:1035400003A002F076B810BD0030004068010020F2
:103550002E2E2F5372632F697764672E630000004D
:1035600010B5002211460C20FDF79AFE0C20FDF745
:103570008BFE002211460D20FDF792FE0D20FDF777
:1035800083FE002211460E20FDF78AFE0E20FDF775
:103590007BFE002211460F20FDF782FE0F20FDF773
:1035A00073FE002211461020FDF77AFE1020FDF771
:1035B0006BFE002211461120FDF772FE1120FDF76F
:1035C00063FE002211461E20FDF76AFE1E20FDF755
:1035D0005BFE002211461720FDF762FE1720FDF763
:1035E00053FE002211462520FDF75AFE2520FDF747
:1035F0004BFE002211462620FDF752FE2620FDF745
:1036000043FE002211462720FDF74AFE2720FDF742
:103610003BFE002211461F20FDF742FE1F20FDF752
:1036200033FE002211462020FDF73AFE2020FDF750
:103630002BFE002211462320FDF732FE2320FDF74A
:1036400023FE002211460320FDF72AFEBDE81040AC
:103650000320FDF719BE00001CB51D481B49016081
:103660004FF0FF3141604FF480718160FEF73EFC06
:1036700018B1482117A001F0DCFF00208DF80400EC
:103680008DF805008DF80600012201A91048FEF70B
:10369000F9FC18B156210FA001F0CBFF04208DF8E2
:1036A00000008DF8010019208DF8020018208DF817
:1036B0000300012269460648FEF782FC002803D079
:1036C000632104A001F0B5FF1CBD000000280040EC
:1036D000740100202E2E2F5372632F7274632E6399
:1036E00000000000114810B50F4901604FF48271CD
:1036F000416000218160C1604FF400720161C0E946
:1037000005121822C0E90721416281620A21C162C3
:10371000FEF78EFD002805D0BDE81040502104A022
:1037200001F087BF10BD000000300140880100207B
:103730002E2E2F5372632F7370692E6300000000CA
:10374000104810B50E4901604FF4827141600021AC
:103750008160C1604FF400720161C0E90512C1616E
:103760000162416281620A21C162FEF761FD0028A7
:1037700005D0BDE81040662103A001F05ABF10BD7E
:1037800000380040E00100202E2E2F5372632F736B
:1037900070692E630000000010B5164886B04FF027
:1037A00080410024C0E900148460C4600461846125
:1037B000FEF717FE18B14B210FA001F03AFF4FF4AE
:1037C0008050009069460B48FEF75EFE18B151210B
:1037D00009A001F02EFF049404A906480594FEF701
:1037E000D8FD002803D0582103A001F022FF06B025
:1037F00010BD0000380200202E2E2F5372632F744C
:10380000696D2E630000000010B5184886B0164997
:10381000016041F61F410024C0E9011442F20F711A
:10382000C0E903148461FEF7DCFD18B16A2110A021
:1038300001F0FFFE4FF48050009069460B48FEF700
:1038400023FE18B170210AA001F0F3FE049404A92C
:1038500006480594FEF79DFD002803D0772104A0BB
:1038600001F0E7FE06B010BD000400407802002021
:103870002E2E2F5372632F74696D2E63000000008B
:1038800010B5184886B01649016041F61F41002462
:10389000C0E9011440F2E731C0E903148461FEF786
:1038A000A0FD18B1892110A001F0C3FE4FF4805093
:1038B000009069460B48FEF7E7FD18B18F210AA07A
:1038C00001F0B7FE049404A906480594FEF761FDD3
:1038D000002803D0962104A001F0ABFE06B010BD75
:1038E00000080040B80200202E2E2F5372632F7460
:1038F000696D2E63000000000D4810B50B49016092
:103900004FF4E1314160002181600C22C160C0E9C7
:1039100004128161C161FEF7CDFF002805D0BDE82A
:103920001040552103A001F084BE10BD00380140B5
:10393000F80200202E2E2F5372632F75736172745C
:103940002E6300000D4810B50B4901604FF4E131C2
:103950004160002181600C22C160C0E904128161D4
:10396000C161FEF7A7FF002805D0BDE8104068211F
:1039700003A001F05EBE10BD0044004038030020EB
:103980002E2E2F5372632F75736172742E63000095
:103990000D4810B50B4901604FF4E1314160002141
:1039A00081600C22C160C0E904128161C161FEF72F
:1039B00081FF002805D0BDE810407B2103A001F065
:1039C00038BE10BD00480040780300202E2E2F5333
:1039D00072632F75736172742E63000010B500223C
:1039E0000649074800F092FF0649054801F07FF9B3
:1039F000BDE81040024801F0C7B9000000000020F7
:103A0000500500204800002070B5184D06460024DF
:103A100095F8140708B900F02FF896B17109F0066F
:103A200000D0491C124A40F22F10131803F500531E
:103A300093F8E0353BB100248C4214D30021E3B26B
:103A40000AE0002070BD641CF6E70E18164406F567
:103A50000056491C86F8E035A142F6D302EB40102F
:103A6000C5F8100770BD401EDFD170BD903000203A
:103A700090100020FEE700000A4942F2DF500022C9
:103A80000A54401EFCD24FF497700B1803F50053F4
:103A9000401E83F8E025F8D20348012180F814176E
:103AA00070470000901000209030002070470907F8
:103AB000090E002806DA00F00F0000F1E02080F87F
:103AC000141D704700F1E02080F8001470472DE9C4
:103AD000FC5F4FF000080446ADF80480ADF80080AC
:103AE00048F60F7B4FF002094FF4806692E1BDF873
:103AF000041011F00F072BD030F82710ADF800108C
:103B0000BDF80010090478D530F8272040F68F71F1
:103B10000A4020F8272004EB471595F8320205F5F6
:103B20000A750028206869D0297830F821205204CD
:103B30007DD5B0F8503009EBC101194406EB4101C5
:103B4000415AC1F309015FEA010A71D0EA88D0E065
:103B5000BDF80410C9062AD4018801EA0B010180CE
:103B6000206804F12805B0F850202B7809EBC30138
:103B7000114406EB4101405AC0F309006064E16B57
:103B80000844E06300212046FDF7D7FB94F82400A9
:103B90000028ABD0A8690028A8D194F82400216897
:103BA00040F08000A1F84C0084F8248032E10188C4
:103BB00004F50A75ADF80010BDF8001009051ED512
:103BC000B0F850302978062202EBC101194406EB07
:103BD0004101405A04F22C41C0F30903EB61AA8869
:103BE000206801F0FBFC2068018840F68F721140CC
:103BF00001802046FDF79BFD0CE1A0E055E0BDF8FB
:103C000000100904D2D5028840F68F710A40028064
:103C10002068B0F850302978062202EBC10119441F
:103C200006EB4101405A83059B0DEB6101E051E039
:103C300063E008D0AA886969206801F0CFFCE969CF
:103C400068690844686100212046FDF77DFB206813
:103C5000B0F85010891D06EB4101014428693E2847
:103C60000CD9C0F34F12C00601D1521E92B24FF6CA
:103C7000FF7000EA822040F4004009E0C0F34F02E8
:103C8000C00701D0521C92B24FF6FF7000EA8220AA
:103C90000860216808884BF68F72104080F440500D
:103CA00048F2800210430880B4E0B0F850202B782E
:103CB000062101EBC301114406EB4101415AC1F356
:103CC00009015FEA010A24D0AA885346696901F014
:103CD00085FC1EE0B0F85020062303EBC10111441F
:103CE00006EB4101415AC1F309015FEA010A04D020
:103CF0002A895346696901F071FC2978206830F8F7
:103D0000213048F68F72134048F2C002134320F866
:103D10002130E96901EB0A00E861696901EB0A02F7
:103D20006A61AB6913B12869504504D929782046E6
:103D3000FDF70AFB03E029782046FDF773FBBDF889
:103D40000000000666D5206804EB471530F8271000
:103D500001EA0B0120F8271095F8320028350028D9
:103D6000206812D0297830F82120B0F8503052065F
:103D70001ED509EBC101194406EB4101405A8305E8
:103D80009B0DEB6124D0EA881EE0B0F850302A7811
:103D900009EBC201194406EB4101405A83059B0D12
:103DA000EB6121D0AA886969206801F02EFC1BE034
:103DB000062202EBC101194406EB4101405A83057A
:103DC0009B0DEB6104D02A896969206801F01DFC14
:103DD0002978206830F8212048F68F731A404CF279
:103DE00080031A4320F821202068B0F850202B7857
:103DF00009EBC301114406EB4101405AC0F309002D
:103E0000E86169690A186A612978AB69204663B17B
:103E1000FDF74AFB2068B0F84410ADF8041009041F
:103E20003FF565AE0020BDE8FC9FFDF786FAF1E79F
:103E30007047010901EB810100F00F0000EB410028
:103E4000C0B2704770B50446FCF71EFF05464FF43C
:103E50007A7606E0FCF718FF401BB04201D9032038
:103E600070BD206840688006F4D52068416841F044
:103E700010014160002070BD70B5044600684168C3
:103E800021F010014160FCF7FFFE05464FF47A7601
:103E900007E000BFFCF7F8FE401BB04201D9032049
:103EA00070BD206840688006F4D5002070BD000019
:103EB0000148FDF7FDBF0000740100200168086A99
:103EC000496A89B241EA00407047006881698AB254
:103ED000C1698BB2816989B28A4203D0C06961F33A
:103EE0001F40704743EA02407047F0B56424C1EBBD
:103EF000C1030927A500072603EB01130329B3FB20
:103F0000F7F100F5FA60114401440AD2401EB0FBFB
:103F1000F4F201EB9001B0FBF5F0891A0844001DA2
:103F200008E0B0FBF4F201EB9001B0FBF5F0891A68
:103F30000844801CB0FBF6F106FB1100C0B2F0BDD6
:103F400070B50D4606460024FFF77CFF48B931687E
:103F5000280C08623168A8B248623046FFF78CFF2F
:103F600000B10124204670BD70B50D460646002400
:103F7000FFF768FF48B93168280C88613168A8B23A
:103F8000C8613046FFF778FF00B10124204670BDBC
:103F90000148FEF7EBB800008801002010B5406A28
:103FA0000021C187C186FEF7E0F810BD7047FEF71B
:103FB000EAB930B593B00920012100904FF4803068
:103FC000002404910691CDE901040225CDE90750B2
:103FD000000109906846FDF7E7FD00B1FEE70F20FC
:103FE000CDE90A054FF48060CDE90C4002210AA812
:103FF0000E94FDF7AFFC00B1FEE711200F904FF4D7
:104000000070109012940FA8FDF72EFC00B1FEE78F
:10401000FDF76AFD4FF47A71B0FBF1F0FEF79FF9FE
:104020000420FEF78FF900221146501EFDF738F9E3
:1040300013B030BD0D48016841F0010101604168D5
:104040000B4A1140416001680A4A11400160016851
:1040500021F480210160416821F4FE0141604FF4A8
:104060001F0181600449C0030860704700100240CE
:104070000000FFF8FFFFF6FE08ED00E00148FEF744
:104080007DBA0000E80D00200148FEF777BA000075
:10409000B8020020F0B50268164B174C174D4FF0D0
:1040A0008047984205D0B84203D0A04201D0A84230
:1040B00003D122F070064A683243984205D0B842D4
:1040C00003D0A04201D0A84203D122F44074CA68B0
:1040D000224322F080044A69224302608A68C26255
:1040E0000A688262984201D1096901630121416134
:1040F000F0BD0000002C014000040040000800401A
:1041000010B5846842EA032224F47F440A43224320
:10411000826010BD826822F070020A4342F00701FB
:104120008160704710B5036A046A24F001040462D8
:10413000846924F0F00444EA021423F00A020A43DA
:104140008461026210BD10B5036A23F0100303629C
:104150008369046A23F4704343EA023224F0A00323
:1041600043EA01118261016210BD10B5406A00216D
:10417000C185C184FEF715FB10BD70B5446A206887
:10418000406994F83910C0F3C0100025212904D1EA
:1041900018B1E584204600F046F82068406994F89C
:1041A0003A10C0F38010222904D118B1E5852046C9
:1041B00000F02BF8E06B40F01000E0632046FEF7C3
:1041C000F0FA70BD10B50146406A096809688906B1
:1041D00013D40021C1850168CA6822F48072CA60C4
:1041E00001684A6922F001024A6101684A6922F0C5
:1041F00040024A61202180F83A10FEF7F7FC10BD1A
:1042000010B5406AFEF7F3FC10BD0168CA6822F4DD
:104210009072CA6001684A6922F001024A61202155
:1042200080F83A1070470168CA6822F0C002CA607C
:10423000202180F83910704710B590F83A102229E3
:1042400001D0022010BD8168B1F5805F11D00169F5
:10425000002901681FD0496801F07F03816A4A1C68
:1042600082620B70C18D491E0904090CC18518D0EA
:104270002BE00269816A002A0268526805D0D2B236
:104280000A80816A491C8162ECE7C2F308020A8055
:10429000816A891CF7E74A68816A4B1C83620A704D
:1042A000E0E70168CA6822F02002CA600168CA68B3
:1042B00022F48072CA6001684A6922F001024A61F0
:1042C000202180F83A10FEF791FC002010BD00007C
:1042D0002DE9F041044600680169E26821F440518B
:1042E000114301612169A06808436169084321689D
:1042F000CA6841F20C639A430243CA60206841696C
:10430000A26921F44071114341614C492068642540
:10431000322688423CD1FDF7FDFB00EBC00101EBEA
:10432000001061688900B0FBF1F7FDF7F3FB00EBCB
:10433000C00101EB00106168B0468900B0FBF1F0EC
:10434000B0FBF5F06FF01801484307EB800106EB76
:104350000110B0FBF5F000F0F006FDF7DBFB00EB21
:10436000C00101EB001061688900B0FBF1F0B0FB07
:10437000F5F006EB0016FDF7CDFB00EBC00101EBFD
:10438000001061688900B0FBF1F7FDF7C3FB3BE06B
:10439000FDF7B0FB00EBC00101EB00106168890084
:1043A000B0FBF1F7FDF7A6FB00EBC00101EB00103D
:1043B0006168B0468900B0FBF1F0B0FBF5F06FF03A
:1043C0001801484307EB800106EB0110B0FBF5F044
:1043D00000F0F006FDF78EFB00EBC00101EB0010D2
:1043E00061688900B0FBF1F0B0FBF5F006EB001658
:1043F000FDF780FB00EBC00101EB00106168890054
:10440000B0FBF1F7FDF776FB00EBC00101EB00100C
:1044100061688900B0FBF1F0B0FBF5F06FF01801B6
:10442000484307EB800108EB0110B0FBF5F0216871
:1044300000F00F0030448860BDE8F0810038014092
:1044400090F83910212901D0022070478168B1F518
:10445000805F016A0BD04A1C0262026809785160D1
:10446000C18C491E0904090CC1840ED017E00988CB
:104470000268C1F30801516001690029016A02D094
:10448000491C0162ECE7891CFBE70168CA6822F05D
:104490008002CA600068C16841F04001C16000202C
:1044A00070472DE9F041984617460E460446069D92
:1044B0001DE0681C1BD02DB1FCF7E6FBA0EB08004B
:1044C000A84214D92068C16821F4D071C160206865
:1044D000416921F001014161202084F8390084F80C
:1044E0003A00002084F838000320BDE8F0812068FD
:1044F000006836EA000004D00020B842D9D000207D
:10450000F3E70120F9E700000148FEF74BB900008E
:10451000F80200200148FEF745B9000038030020EA
:10452000124808B500680168C1F3001100291CD0C9
:10453000016841680091016840680C48FEF705F980
:104540000B4800684068C0F580710A48416001214D
:1045500001704168084801F029FDBDE808404FF4AA
:10456000807205490148FEF7F5BA08BD78030020BE
:104570000C05002008010020900F002010B5D0F895
:10458000142252689047002010BD134610B50A4609
:10459000002100F0DEFA002010BD134610B50A46D7
:1045A000002100F080FB002010BD10B504468021E2
:1045B00000F050FB2046BDE81040002100F04ABB4F
:1045C00010B505210023C0F8F4111A46194600F071
:1045D000C0FA002010BD10B502238261C0F8F4318A
:1045E000C26113460A46002100F05DFB002010BDA9
:1045F00010B504210023C0F8F4111A46194600F042
:1046000052FB002010BD000010B50A46024903A06D
:1046100000F0D4F8004810BDE80B002048494420C1
:10462000436F6E666967000012200880004870477B
:104630002000002010B50A46024903A000F0BEF891
:10464000004810BDE80B002048494420496E7465BD
:1046500072666163650000000420088000487047AE
:104660001C00002010B50A46024903A000F0A6F87D
:10467000004810BDE80B002053544D6963726F650C
:104680006C656374726F6E696373000010B50A46DF
:10469000024903A000F092F8004810BDE80B00208A
:1046A00053544D33322048756D616E20696E7465C8
:1046B000726661636500000010B50A46024903A0F6
:1046C00000F07CF8004810BDE80B0020303030309E
:1046D000303030303030314100000000F8B5044651
:1046E00048880D46010A08294BD2DFE801F04A0448
:1046F00009174A4A4048D4F81012207C0A6832E070
:10470000207C02260028D4F8140205D0C16A68462D
:1047100088470146467041E0816AF8E7C0B2062842
:104720002FD2DFE800F003080D12171CD4F8101286
:10473000207C4A6817E0D4F81012207C8A6812E0C6
:10474000D4F81012207CCA680DE0D4F81012207C36
:104750000A6908E0D4F81012207C4A6903E0D4F812
:104760001012207C8A6969469047014616E0207C39
:1047700038B9D4F81402416B68468847F5E7207CC5
:1047800020B129462046FFF710FFF8BDD4F81402E7
:10479000016B68468847014607204870BDF8000055
:1047A0000028F2D0EA88002AEFD0824200D90246DF
:1047B000ADF800202046FFF70EFFF8BD70B50023CE
:1047C00000281DD00446002502E06D1CEDB2641CDB
:1047D0002678002EF9D1022404EB45041480CC5431
:1047E0005B1C0322CA5400245B1C06E0CA545B1CF9
:1047F000DAB28C54521CD3B2401C0278002AF5D194
:1048000070BDD0F81802002101730846704710B53A
:104810000446812100F09FF8D4F8180220B100F07E
:10482000B9FB0020C4F81802002010BD222101802D
:1048300000487047800000200A210180004870472E
:10484000B000002070B50546002404230322812116
:1048500000F06CF9102000F09FFBC5F8180218B1A9
:1048600000210173204670BD0124FBE770B50022D2
:104870000D78D0F81832144615F060051BD0202DA5
:1048800040D14A78022A13D0032A0AD00A2A0BD030
:104890000B2A03D0FFF789FE022070BD88781860CC
:1048A00030E00122194624E04888000A586029E0D7
:1048B0000122191D1DE04D78062D04D00A2D1BD0B4
:1048C0000B2D1FD11CE04B882225B5EB132F05D1F2
:1048D000CA884A2A00D94A220B4C09E02125B5EBA7
:1048E000132F05D1084CCA88183C092A00D909227F
:1048F0002146FFF770FE05E0012203F10801F8E709
:1049000088789860002070BDBC00002010B580B190
:10491000D0F8143213B10023C0F8143209B1C0F832
:104920001012012180F8FC11027000F0AFF8002095
:1049300010BD022010BD10B50024D0F82002FCF7F5
:104940002BFD30B1012801D0022801D0022400E063
:104950000124204610BD10B50024D0F82002FCF739
:10496000FBFC30B1012801D0022801D0022400E074
:104970000124204610BD2DE9F0411746044641B1FF
:10498000D4F8140242698AB394F8FC01032842D097
:1049900043E0D4F8F411002504F11400022933D1C6
:1049A000D0E902639E4207D9F31A83609AB239466E
:1049B0002046FFF7F2FD12E04068B0FBF3F103FB85
:1049C0001101A1B9984212D3D4F8F81188420ED23D
:1049D000002211462046FFF7E0FDC4F8F8510023FD
:1049E0001A461946204600F0B4F80DE012E0D4F85B
:1049F0001402C16829B194F8FC01032801D12046B2
:104A000088472046FFF7DCFD94F80002012804D116
:104A100084F8005201E0204690470020BDE8F08174
:104A200070B51546044641B1D4F8140282693AB310
:104A300094F8FC01032824D025E0D4F8F41104F5FF
:104A4000827003291FD1D0E902218A420BD9531A5F
:104A500083600846834200D303469AB22946204623
:104A6000FFF793FD0FE0D4F81402016929B194F81F
:104A7000FC01032801D1204688472046FFF7B8FDF6
:104A800001E020469047002070BD000010B5194994
:104A90000446C1F85C04C0F82012174808600820DA
:104AA0004860022088600320C86000208861C861D7
:104AB00008620846FCF794FD20B14FF497710FA0EF
:104AC00000F0B7FD0022D4F820021823114604F5A7
:104AD0000874FCF717FC5823002280212068FCF79B
:104AE00011FC4FF48073002281212068FCF70AFC3E
:104AF000002010BD88070020005C00402E2E2F53A0
:104B000072632F757362645F636F6E662E6300005D
:104B10000A06D0F8200201F07F0100EB411002D517
:104B200090F82A00704790F82A02704770B51D4629
:104B300013460024D0F820022A46FCF751FC30B17D
:104B4000012801D0022801D0022400E001242046DF
:104B500070BD10B50024D0F82002FCF763FC30B122
:104B6000012801D0022801D0022400E001242046BF
:104B700010BD70B50022044640231146FFF7D6FF52
:104B800040252B46002280212046C4F81051FFF713
:104B9000CDFF0120256284F8FC01D4F8180228B169
:104BA000D4F814022179426820469047002070BD55
:104BB00090F8FD1180F8FC110020704710B590F8B6
:104BC000FC11032904D1D0F81412C96901B1884736
:104BD000002010BD01740020704710B50024D0F8EB
:104BE0002002FCF790FD30B1012801D0022801D04D
:104BF000022400E00124204610BD70B5044600F5F3
:104C00000270054600F05FF80120C4F8F401B4F822
:104C10000E02C4F8F80194F8080210F01F010AD03F
:104C200001290DD0022910D000F08001204600F0AB
:104C300011F8002070BD2946204600F0AAF8F8E7D8
:104C40002946204600F08CF9F3E72946204600F07B
:104C500019F9EEE710B50024D0F82002FCF7F9FBB3
:104C600030B1012801D0022801D0022400E0012443
:104C7000204610BD10B50024D0F82002FCF75EFDE0
:104C800030B1012801D0022801D0022400E0012423
:104C9000204610BD90F8FC1180F8FD11042180F829
:104CA000FC110020704710B50024D0F82002FCF75A
:104CB000FBFB30B1012801D0022801D0022400E022
:104CC0000124204610BD0A7802704A7842708A7822
:104CD000CB7802EB032242800A794B7902EB032264
:104CE00082808A79C97902EB0121C180704702462E
:104CF000002011B1C2F8141270470220704710B59D
:104D0000D0F8142202241AB11268904700B9002486
:104D1000204610BD70B50E461A4D8978044629709C
:104D2000012928D894F8FC01022802D0032822D1B6
:104D300005E099B10320616084F8FC0109E091B1BC
:104D4000606888420AD0C1B22046FFF717FC297874
:104D500061602046FFF7D3FF02280CD02046BDE853
:104D60007040FFF745BC022084F8FC0120466160DA
:104D7000FFF704FCF2E731462046BDE87040FFF73C
:104D800014BC00004400002010B5FFF773FF0020A2
:104D900010BD2DE9F04100264B78012532460A2B43
:104DA00043D2DFE803F03C584251420805422A272B
:104DB000FFF794FC63E004468888C8B9C888B8B98E
:104DC000887800F07F0794F8FC01032810D084F85D
:104DD000FE7139462046FFF700FF2046FFF708FC2A
:104DE0001FB1022084F8FC0149E084F8FC5146E040
:104DF00020461AE0FFF78EFF41E0CB88012B14D14B
:104E000090F8FC31022B02D0032B0ED104E082601B
:104E1000012200F1080114E00122011D11E090F8C7
:104E2000FC21022A04D0032A02D0FFF7BEFB26E0B1
:104E3000C560D0F8041209B10321C160022200F15B
:104E40000C01FFF7C8FB1AE004464888012816D178
:104E5000C4F804520BE0044690F8FC01022801D08B
:104E60000328C5D14888012809D1C4F80422D4F800
:104E700014028268204690472046FFF7B9FB30466F
:104E8000BDE8F08170B50D46044628780026097902
:104E9000C0F34110012806D06878A0B301281FD0C4
:104EA00003283FD107E0D4F814022946826820463F
:104EB0009047002070BD94F8FC01022817D0032809
:104EC0002CD1688828B921B1802902D02046FFF76B
:104ED000C1FED4F81402294682682046904713E0A8
:104EE00094F8FC01022802D0032817D103E0C9B1CD
:104EF00080291BD116E06888A0B9480604D0204656
:104F0000FFF719FDE5E703E02046FFF771FB09E035
:104F100094F8FC01022807D003280BD0294620462C
:104F2000FFF743FB304670BD4806FBD02046FFF735
:104F300091FEF7E7080601F07F0004EB001501D5AC
:104F4000143501E005F582752046FFF7E1FD00B15B
:104F500001202860022229462046FFF73CFBE1E7BA
:104F600070B5054690F8FC010C4603280DD1207958
:104F700001280AD8D5F81402826828469047E088AC
:104F800030B92846FFF734FB02E02846FFF70DFB57
:104F9000002070BD70470000004870477407002073
:104FA0002DE9F047CC780A7848F68F1334B1012CFC
:104FB0006DD0022C08D0032C13D10BE030F8224026
:104FC0001C4044F400730AE030F822401C4020F8F2
:104FD000224006E030F822401C4044F4C06320F830
:104FE00022300C7830F8245048F68F72154048F281
:104FF00080031D43254320F824508D7A48F6BF795D
:1050000004274BF68F7A48F2C0044CF28006EDB3C9
:105010000D7830F825C048F280180CEA020C4CEAF2
:10502000080C20F825C0CD88B0F850C025F0010547
:1050300091F800800CEBC80C00EB4C0CCCF8005441
:105040000D89B0F850C025F0010591F8008007EBFC
:10505000C807674400EB4707C7F800544D78002D98
:105060000D7830F825704FEA47477DD0002F05DADC
:1050700030F825701740374320F825700D7830F848
:1050800025707F0608D530F8257001E024E01DE08A
:105090001740274320F825700C7830F8245015402D
:1050A000354320F824500C7830F8242002EA090215
:1050B0001A4320F824200A7830F8221001EA0A0165
:1050C000194320F822100020BDE8F08730F8224074
:1050D0001C4044F4806382E74D78F5B18D88B0F8C8
:1050E000506025F001050F7806EBC70600EB460679
:1050F000C6F800540D7830F82560760605D530F8EE
:1051000025601640264320F825600A7830F82210E2
:1051100001EA090181F02001D2E78C88B0F85050F3
:1051200024F0010491F800C007EBCC073D4400EBEC
:105130004505C5F80044B0F850400D78062707EB48
:10514000C5052C4400EB44070C694FF6FF7C07F5BE
:1051500080673E2C0CD9C4F34F15E40601D16D1EB7
:10516000ADB20CEA852400E01EE044F4004407E000
:10517000C4F34F05E40701D06D1CADB20CEA8524E1
:105180003C600C7830F824506D0405D530F824507C
:105190001540354320F824500A7830F8221001EAEF
:1051A0000A0181F440518BE7002F05DA30F82570B1
:1051B0001740374320F825700D7830F825607606C3
:1051C00005D530F825601640264320F825600E7876
:1051D00030F826501540254320F826500C7830F83A
:1051E000242002EA0A0282F440521A4320F82420C2
:1051F0000A7830F8221001EA090161E700207047BF
:105200002DE9F04391F80A8091F801C00A7848F638
:10521000BF774BF68F7948F2800348F2C0054CF215
:10522000800648F68F74B8F1000F2ED0BCF1000F45
:1052300030F822C04FEA4C4C4ED0BCF1000F07DAD8
:1052400030F822C00CEA040C4CEA060C20F822C00C
:105250000A7830F822C05FEA4C6C07D530F822C0DB
:105260000CEA040C4CEA050C20F822C00A7830F84D
:1052700022502540354320F822500C7830F8242065
:105280003A401A4320F824201BE0BCF1000F0ED056
:1052900030F82260760605D530F8226026402E438D
:1052A00020F822600A7830F8221039400EE030F8F9
:1052B00022506D0405D530F822502540354320F8A2
:1052C00022500A7830F8221001EA0901194320F827
:1052D00022100020BDE8F083BCF1000F07DA30F89F
:1052E00022C00CEA040C4CEA060C20F822C00A7812
:1052F00030F82260760605D530F8226026402E432D
:1053000020F822600E7830F8262022402A4320F828
:1053100026200C7830F8242002EA09021A4320F8EB
:105320002420BFE7002070470020704700B501210E
:10533000A0F840100021A0F84010A0F84410A0F8F8
:10534000501000F03AF9002000BD30F8401F21F461
:105350003D410180002070470020704730B54D78F6
:105360000A78002D48F68F7430F8225048F28003F6
:1053700012D06D0607D530F82250254048F2C004FF
:10538000254320F822500A7830F8221048F6BF74DE
:10539000214081F0300111E06D0407D530F8225032
:1053A00025404CF28004254320F822500A7830F83A
:1053B00022104BF68F74214081F44051194320F89C
:1053C0002210002030BD10B50A7848F2800352B197
:1053D0004978002930F8221010D048F6BF742140D7
:1053E00081F010010FE001884BF6BF72114081F48B
:1053F000805181F010011943018007E04BF68F7452
:10540000214081F48051194320F82210002010BD62
:105410002DE9F0410D460646896995F801C0002343
:10542000AA7A022728690C4648F28008BCF1010FCD
:1054300005D0814252D90446081AA8614FE0814242
:1054400003D90446081AA86100E0AB617AB1287854
:1054500036F820104906B6F8501007EBC000084493
:1054600006EB4000C0F8004412D52A8911E0A3B22F
:10547000AA883046696900F0C8F8B6F85000297863
:1054800007EBC101084406EB4000C0F800441CE0F3
:10549000EA88A3B23046696900F0B7F8687848F640
:1054A0008F7110B1012807D00FE0287836F820203E
:1054B0000A4048F2C00105E0287836F820200A406A
:1054C0004CF280010A4326F82020297836F8210082
:1054D00048F6BF72104080F0300067E0AB610623F1
:1054E0004FF6FF701AB1BCF1000F1BD056E0B6F8B2
:1054F00050102A783E2C03EBC202114406EB410205
:1055000002F5806239D9C4F34F11E30632D000BFEF
:1055100000EA812040F4004002E000BF00EA812060
:1055200010603BE0B6F850102A783E2C07EBC20220
:10553000114406EB410202F580620BD9C4F34F110E
:105540005FEAC46C01D1491E89B200EA812141F4AD
:10555000004108E0C4F34F015FEAC47C01D0491C5C
:1055600089B200EA8121116069780029BFD0012940
:105570000AD013E0491E89B2CAE7C4F34F01E3071A
:10558000CCD0491C89B2C9E7B6F85000297807EB9E
:10559000C101084406EB4000C0F80044297836F801
:1055A00021004BF68F72104080F4405040EA080012
:1055B00026F821000020BDE8F08130F8401F41F4BA
:1055C0003F410180002070470148FBF782BF000087
:1055D00088070020B0F84400704700005B1C00EB17
:1055E00042005B0800F5806006D000BF30F8042B55
:1055F00021F8022B5B1EF9D170470020704711B9CA
:105600008021A0F84C100020704710B55B1C00EB07
:1056100042005B0800F5806009D011F8012B5B1E89
:1056200011F8014B42EA042220F8042BF5D110BDF9
:10563000FEE7FEE70FB4054B10B503A9044A029834
:1056400000F0DAF810BC5DF814FB00008D61000872
:105650001001002002E008C8121F08C1002AFAD178
:1056600070477047002001E001C1121F002AFBD1E2
:10567000704700002DE9FF5F82B00021DDE90430B2
:10568000020DDDF840B0034318D044F61050A2F2EA
:10569000FF3242431514119801281FD0A5EB0B00CF
:1056A000401C5FEA000A4FF000064E4FDFF83891C9
:1056B000B046504615D5CAF1000413E011980124F4
:1056C0004AA3012801D16FEA0B010298119AC0E99F
:1056D0000031C0E9024206B0BDE8F09FCBF1000006
:1056E000DFE704460021404A491842EB0450CDE967
:1056F000001012E0E00707D032463B4640464946DC
:10570000FAF744FE8046894632463B461046194623
:10571000FAF73CFE06460F466410002CEAD1DDE99C
:105720000401DDE90023BAF1000F06DAFAF72EFED4
:1057300042464B46FAF72AFE05E0FAF799FE424642
:105740004B46FAF795FE04460E460022284BFAF720
:1057500017FF03D84FF0FF30014607E00022254B2A
:1057600020463146FAF76BFDFAF7F1FE102409E006
:10577000002C0ADB0A220023FAF730FD039B3032AB
:105780001A55641E50EA0102F2D1641C039AC4F156
:1057900011031444119A012A03D0012208430DD1A8
:1057A0000AE0084304D000204FF0110B119072E77B
:1057B000A3EB0B056D1E0DE05B4504DD4FF0000211
:1057C00005F1010504E003DA4FF00002A5F101053F
:1057D000002AECD002981199C0E90231C0E90045D5
:1057E00079E70000000014400000F03F30000000A6
:1057F0000000F0430000E03F2DE9FF4F95B09B46CD
:105800008946064600250FE2252877D10024274641
:10581000F84A0121059400E0044316F8013F203BBB
:1058200001FA03F01042F7D130782A2811D06FF036
:105830002F033078A0F13002092A16D8059A44F0D7
:10584000020402EB820203EB42021044761C059034
:10585000EFE759F8042B0592002A03DA504244F48A
:105860000054059044F00204761C30782E2816D19E
:1058700016F8010F44F004042A280DD06FF02F020F
:105880003078A0F13003092B09D807EB870302EB2E
:105890004303C718761CF3E759F8047B761C30786D
:1058A0006C280FD006DC4C2817D068280DD06A2849
:1058B00014D104E0742810D07A280FD10DE044F4FC
:1058C00000140AE044F4801401E044F440147278B7
:1058D000824202D104F58014761C761C307866284A
:1058E0000BD013DC582877D009DC002875D0452868
:1058F000F6D04628F4D047281AD19DE118E0632855
:1059000035D0642879D0652812D195E1702873D0FC
:1059100008DC6728F1D069286FD06E280DD06F2879
:1059200006D1B5E073282CD0752875D0782874D0AE
:105930005A46179990476D1C75E1C4F3025002282E
:1059400009D003280DD0D9F8001004280DD00D601F
:1059500009F1040967E1D9F80010EA17C1E900521A
:10596000F6E7D9F800100D80F2E70D70F0E719F8AE
:10597000041B8DF8001000208DF80100EA4601207C
:1059800003E059F804AB4FF0FF3061074FF000011E
:1059900002D40DE008F101018846B9420FDA8045D2
:1059A000F8DB1AF808100029F4D108E008F1010129
:1059B00088468142FADB1AF808100029F6D10598CA
:1059C0005B46A0EB080721463846179A00F094FA88
:1059D000284400EB080507E04DE029E10DE01AF846
:1059E000010B5A4617999047B8F10108F7D25B4668
:1059F00021463846179A13E142E00A220092C4F386
:105A000002524FF0000A022A08D059F804CB032AA8
:105A10004FEAEC710AD00DE029E02AE009F1070114
:105A200021F00702F2E802C1914609E00FFA8CFC6E
:105A30004FEAEC71042A03D14FFA8CFC4FEAEC7167
:105A4000002907DA0A460021DCF1000C61EB0201B3
:105A50002D2202E0220504D52B228DF804200122FC
:105A600003E0E20701D02022F7E7904659E00A213F
:105A700002E010220DE010214FF0000A00910BE02F
:105A800010224FF0000A44F004040827009203E0BB
:105A900008224FF0000A0092C4F30252022A05D0F5
:105AA00059F804CB0021032A08D009E009F10701C5
:105AB00021F00702F2E802C1914605E01FFA8CFCD2
:105AC000042A01D10CF0FF0C4FF00008220728D562
:105AD000702806D0009B83F0100353EA0A0305D018
